:02000004080AE8
:1000000000000A08B4350A080000060006000501D1
:080010000402FE0800000000DC
:0400180004330A089B
:10001C0009480A4908B5884205D0094A824202D0EB
:10002C00121A03F098F80748074A0021121A03F035
:10003C00A0F8064808BD00BF0000002014350A08CF
:10004C00780000207800002009020020090200201E
:10005C0070B502F0EDF90025054E064CA41BA40862
:10006C00A54200D170BD56F8043B98470135F7E71F
:10007C00E4340A080C350A0800F016B808B500F08C
:10008C00ABF9BDE8084002F08BB901F0B5BF01F047
:10009C00B3BF01F0B9BF0078B0FA80F040097047E7
:1000AC00012303707047000010B5124800F0D2FA1B
:1000BC00114A1249124802F048FA124A12491048E1
:1000CC0002F043FA02F06CFD4FF4165102F05CFDA5
:1000DC0041F2873402F064FD03681B69984740B90C
:1000EC0001F0CCFDA04204D84FF47A7002F0FEF877
:1000FC00F0E710BD7C00002018330A082D050A0813
:10010C002B250A0820330A08D1040A082DE9F04FE0
:10011C0083460B20BBFBF0F5A9B0CDE90212ABEB8B
:10012C004501269321EAE173DBB20593029B491B3F
:10013C00B3FBF0F4A3EB440222EAE273DBB20693C6
:10014C00039B121BB3FBF0F0A3EB400323EAE37613
:10015C00F6B2079621EAE176F6B2099622EAE27641
:10016C00F6B21B1A0A9623EAE376491BF6B20B96F3
:10017C0021EAE176121BF6B20D9622EAE276F6B28D
:10018C001B1A0E9623EAE376491BF6B20F9621EA68
:10019C00E176121BF6B2119622EAE276F6B21B1A3F
:1001AC00129623EAE376491BF6B2139621EAE1761E
:1001BC00121BF6B2159622EAE276F6B21B1A1696C6
:1001CC0023EAE376491BF6B2179621EAE176121B75
:1001DC00F6B2199622EAE276F6B21B1A1A9623EABE
:1001EC00E376491BF6B21B9621EAE176121BF6B2B6
:1001FC001D9622EAE276F6B21B1A1E9623EAE376E5
:10020C00491BF6B21F9621EAE176121BF6B2209634
:10021C00491B22EAE2760025121B0C24F6B21B1AAB
:10022C00219623EAE3761B1AF6B221EAE17122EA5F
:10023C00E27223EAE3732296C9B2D2B2DBB25A4E0F
:10024C002391249225936A1E92FBF4F304FB13234F
:10025C00AA1EDBB2049392FBF4F304FB1323EA1EF5
:10026C00DBB2089392FBF4F304FB13232A1FDBB2DB
:10027C000C9392FBF4F304FB13236A1FDBB2109371
:10028C0092FBF4F304FB1323AA1FDBB2149392FB2F
:10029C00F4F304FB1323EA1FDBB2189392FBF4F381
:1002AC0004FB1323DBB21C93A5F1080393FBF4FAB4
:1002BC0004FB1A3AA5F1090393FBF4F904FB193971
:1002CC00A5F10A0393FBF4F80D2704FB1838EBB2E5
:1002DC005FFA8AFA5FFA89F95FFA88F82793039B29
:1002EC005A46304627990093029B00F0E5F9079B8C
:1002FC00304604990093DDE9052300F0DDF90B9BF2
:10030C00304608990093DDE9092300F0D5F90F9BDD
:10031C0030460C990093DDE90D2300F0CDF9139BC9
:10032C00304610990093DDE9112300F0C5F9179BB5
:10033C00304614990093DDE9152300F0BDF91B9BA1
:10034C00304618990093DDE9192300F0B5F91F9B8D
:10035C0030461C990093DDE91D2300F0ADF9229B7A
:10036C00514630460093DDE9202300F0A5F9259B8A
:10037C00494630460093DDE9232300F09DF9002324
:10038C0041461A4630460093013F00F095F9BFB242
:10039C00269801F0ABFF002FA1D10135192D7FF468
:1003AC0052AF29B0BDE8F08F7C00002038B504684E
:1003BC0005467CB16368013B63605BB923682046EA
:1003CC009B689847A368013BA3601BB92368204630
:1003DC00DB689847284638BD7FB5334C2378CBB9BA
:1003EC00324800F09DF90221304800F0AFF9064682
:1003FC00002834D02E4B00221B782E498DF800306B
:10040C003C23227002A802F093F903A8FFF7CEFF59
:10041C0004B070BD284B1B68032BE4D8DFE803F055
:10042C000207121A0521214800F0C6F9DBE7002269
:10043C0001231146FF20FFF769FEC8211B4800F07D
:10044C0095F9D0E700210123FF220846FFF75EFE55
:10045C001421F3E700220123FF211046F6E70321C4
:10046C00124800F073F9054668B11E237822322138
:10047C001920FFF74BFE0E4B32461B780F498DF8B7
:10048C0000303C23BEE70421084800F05FF9002847
:10049C00BED001232370064B2A461B7808498DF8E1
:1004AC0000303C23AEE700BF780000207C00002029
:1004BC007900002026330A08000000202E330A0899
:1004CC0036330A081FB51349044601F082FE124B5D
:1004DC00024680B100221B78104902A80A702168DC
:1004EC008DF800303C2302F023F903A8FFF75EFFE0
:1004FC00012004B010BD1B7821688DF8003002A8D3
:10050C003C2302F015F903A8FFF750FF4FF0FF3022
:10051C00EFE700BF3E330A08790000207800002086
:10052C002DE9FF413849054601F053FE374E074689
:10053C0080B101240027364B1C70364B1F6002F033
:10054C002FFB354901F08CFE33783A468DF800309C
:10055C003C2324E02846314901F03BFE804640B163
:10056C0001242B4B1C702B4B1C6002F019FB2C49EB
:10057C00E8E728462B4901F02CFE0746D0B10124B0
:10058C000222234B1C70234B1A6002F009FB2649F4
:10059C0001F066FE337842468DF800303C2302A809
:1005AC00296802F0C5F803A8FFF700FF204604B045
:1005BC00BDE8F08128461D4901F00BFE044648B108
:1005CC0001240322124B1C70124B1A6002F0E8FA41
:1005DC001749B7E702F0E4FA164901F041FE02F0C0
:1005EC00DFFA296801F03CFE3378224629688DF841
:1005FC00003002A83C2302F09BF803A8FFF7D6FEBC
:10060C004FF0FF34D2E700BF41330A0879000020D5
:10061C0078000020000000204A330A0852330A08F0
:10062C0057330A085B330A0861330A0866330A0831
:10063C006D330A0873330A080122024B02481A7000
:10064C0000F004B8790000207C000020FA2303603D
:10065C007047000010B5124C204600F00BF92046F4
:10066C00104C00F03DF9204601F0B1FA204601F0A3
:10067C009CFA0D4B0221187802F0D6FC0B4B022190
:10068C00187802F0D1FC0A4B0221187802F0CCFC4D
:10069C00BDE81040074B0221187802F0C5BC00BF22
:1006AC0084000020800000200400002005000020B1
:1006BC000600002007000020F8B50C290C46154652
:1006CC001E469DF818701DD1144801F004FA0B2831
:1006DC0018D83A463146284601F0F6F90021024670
:1006EC000E4801F0ADF93A463146284601F0ECF9D6
:1006FC000A210246094801F0A3F9BDE8F840074871
:10070C0000F0EEB83A463146284601F0DDF9611E9C
:10071C00024689B2014801F093F9EEE7840000200B
:10072C0010B5002400221146104601F0CDF9A1B2FB
:10073C0002460134044801F083F90B2CF2D1024833
:10074C00BDE8104000F0CCB884000020084608B585
:10075C00054B1B78042B08BF033002F08FFCB0FA5A
:10076C0080F0400908BD00BF04000020542909D8BE
:10077C00A1EB810301EB4100013B0022D9B2C0B2D5
:10078C0001F0A2B9A9290BD85539C9B201EB410224
:10079C00A1EB8101481ED2B20021C0B201F094B984
:1007AC005631C9B2A1EB8102013A01EB41010020A3
:1007BC00D2B2C9B201F088B92DE9F04107460E4614
:1007CC000024DFF8448000250F4801F082F92B0249
:1007DC00B3FBF0F32344D9B23846FFF7C7FFA9B2F5
:1007EC0002460135084801F02BF90C2DECD140469E
:1007FC00013400F075F8A4B2304601F077FDB4F581
:10080C00807FE0D1BDE8F0818400002010B5084C59
:10081C000321207802F008FC0B21227802230548E2
:10082C0000F04DF8BDE810400C21034801F066B90A
:10083C0008000020840000208000002038B5044609
:10084C00C0680D4608B101F0DFFBA379062B0CBF85
:10085C0004200320684380B2A08001F0CDFBE0604F
:10086C0028B10021A28802F084FC658038BDA080EC
:10087C006080FBE710B504460121C07902F0D4FB7F
:10088C000021E07902F0E1FB0123237010BD38B5A3
:10089C00037805460C461BB10021C07902F0C4FB5D
:1008AC002B78EC7153B1A4B22046012102F0BCFBB1
:1008BC002046BDE83840002102F0C7BB38BD70B5FA
:1008CC000025044616468371C0E903550570057270
:1008DC00FFF7B4FF20463146FFF7D9FF204670BD25
:1008EC00C368002B00F04184F0B583790446023BC9
:1008FC00DBB2042B8CBF3225284A87B098BF52F844
:10090C00235001F0B3F92369C01AA842F9D372B687
:10091C00A388A579ADF80A30BDF80A30022DE1683C
:10092C009BB200F06E82072D00F06B82062D00F05A
:10093C001D84052D00F0A183082D00F09E83002D51
:10094C0040F04F85002B00F092834FF40006144AC0
:10095C000496BDF80A300331033B9BB2ADF80A3064
:10096C0011F8033CDBB28DF8073011F8023CDBB216
:10097C008DF8063011F8013CDBB28DF808309DF88B
:10098C0007709DF806309DF808001B0243EA0743E8
:10099C00034303938DF805501BE100BF7C330A0819
:1009AC0098000020004600BF00BF00BF00BF00BF82
:1009BC0000BF00BF00BF00BF00BF00BF00BF00BF33
:1009CC0000BF00BF00BF00BF00BF00BF00BF00BF23
:1009DC0000BF00BF00BF00BF00BF00BF00BF00BF13
:1009EC0000BF00BF00BF00BF00BF00BF00BF00BF03
:1009FC0000BF00BF00BF00BF00BF00BF00BF00BFF3
:100A0C0000BF00BF00BF00BF00BF00BF00BF00BFE2
:100A1C0000BF00BF00BF00BF00BF00BF00BF00BFD2
:100A2C0000BF00BF00BF00BF00BF00BF00BF00BFC2
:100A3C0000BF00BF00BF00BF00BF00BF00BF00BFB2
:100A4C0000BF00BF00BF00BF00BF00BF00BF00BFA2
:100A5C0000BF00BF00BF00BF00BF00BF00BF00BF92
:100A6C0000BF00BF00BF00BF00BF00BF00BF00BF82
:100A7C0000BF00BF00BF00BF00BF00BF00BF00BF72
:100A8C0000BF00BF00BF00BF00BF00BF00BF00BF62
:100A9C0000BF00BF00BF00BF00BF00BF00BF00BF52
:100AAC0000BF00BF00BF00BF00BF00BFE3791068EC
:100ABC00C3EBC30300EB8307BF8850F823305F837D
:100ACC00004600BF00BF00BF00BF00BF00BF00BF9B
:100ADC0000BF00BF00BF00BF00BF00BF00BF00BF12
:100AEC0000BF00BF00BF00BF00BF00BF00BF00BF02
:100AFC0000BF00BF00BF00BF00BF00BF00BF00BFF2
:100B0C0000BF00BF00BF00BF00BF00BF00BF00BFE1
:100B1C0000BF00BF00BF00BF00BF00BF00BF00BFD1
:100B2C0000BF00BF00BF00BF00BF00BF00BF00BFC1
:100B3C0000BF00BF00BF00BF00BF00BF00BF00BFB1
:100B4C0000BF00BF00BF00BF00BF00BF00BF00BFA1
:100B5C0000BF00BF00BF00BF00BF00BF00BF00BF91
:100B6C0000BF00BF00BF00BF00BF00BF00BF00BF81
:100B7C0000BF00BF00BF00BF00BF00BF00BF00BF71
:100B8C0000BF00BF00BF00BF00BF00BF00BF00BF61
:100B9C0000BF00BF00BF00BF00BF00BF00BF00BF51
:100BAC0000BF00BF00BF00BF00BF00BF00BF00BF41
:100BBC0000BF00BF00BF00BF00BF049B5B080493D5
:100BCC009DF805300133DBB2172B8DF8053000F2A0
:100BDC002787E3791068C3EBC30300EB8307BF8857
:100BEC0050F823301F830398049B18427FF4DAAE2D
:100BFC00004600BF00BF00BF00BF00BF00BF00BF6A
:100C0C0000BF00BF00BF00BF00BF00BF00BF00BFE0
:100C1C0000BF00BF00BF00BF00BF00BF00BF00BFD0
:100C2C0000BF00BF00BF00BF00BF00BF00BF00BFC0
:100C3C0000BF00BF00BF00BF00BF00BF00BF00BFB0
:100C4C0000BFE3791068C3EBC30300EB8307BF88D5
:100C5C0050F823305F83004600BF00BF00BF00BFC9
:100C6C0000BF00BF00BF00BF00BF00BF00BF00BF80
:100C7C0000BF00BF00BF00BF00BF00BF00BF00BF70
:100C8C0000BF00BF00BF00BF00BF00BF00BF00BF60
:100C9C0000BF00BF00BF00BF00BF00BF00BF00BF50
:100CAC0000BF00BF00BF00BF00BF00BF00BF00BF40
:100CBC0000BF00BF00BF00BF00BF00BF00BF00BF30
:100CCC0000BF00BF00BF00BF00BF00BF00BF00BF20
:100CDC0000BF00BF00BF00BF00BF00BF00BF00BF10
:100CEC0000BF00BF00BF00BF00BF00BF00BF00BF00
:100CFC0000BF00BF00BF00BF00BF00BF00BF00BFF0
:100D0C0000BF00BF00BF00BF00BF00BF00BF00BFDF
:100D1C0000BF00BF00BF00BF00BF00BF00BF00BFCF
:100D2C0000BF00BF00BF00BF00BF00BF00BF00BFBF
:100D3C0000BF00BF00BF00BF00BF00BF00BF00BFAF
:100D4C0000BF00BF00BF00BF00BF00BF00BF00BF9F
:100D5C0000BF00BF00BF00BF00BF00BF00BF00BF8F
:100D6C0000BF00BF00BF00BF00BF00BF00BF00BF7F
:100D7C0000BF00BF00BF00BF00BF00BF00BF00BF6F
:100D8C0000BF00BF00BF00BF00BF00BF00BF00BF5F
:100D9C0000BF00BF00BF00BF00BF00BF00BF00BF4F
:100DAC0000BF00BF00BF00BF00BF00BF00BF00BF3F
:100DBC0000BF00BF00BF00BF00BF00BF00BF00BF2F
:100DCC0000BF00BF00BF00BF00BF00BF00BF00BF1F
:100DDC0000BF00BF00BF00BF00BF00BF00BF00BF0F
:100DEC0000BF00BF00BF00BF00BF00BF00BF00BFFF
:100DFC0000BF00BF00BF00BF00BF00BF00BF00BFEF
:100E0C00DBE6002B00F033814FF400050026134A7B
:100E1C000495BDF80A300331033B9BB2ADF80A30A0
:100E2C0011F8033CDBB28DF8063011F8023CDBB252
:100E3C008DF8073011F8013CDBB28DF808309DF8C5
:100E4C0006709DF807309DF808001B0243EA074323
:100E5C00034303938DF8056080E000BF98000020E9
:100E6C00004600BF00BF00BF00BF00BF00BF00BFF7
:100E7C0000BF00BF00BF00BF00BF00BF00BF00BF6E
:100E8C0000BF00BF00BF00BF00BF00BF00BF00BF5E
:100E9C0000BF00BF00BF00BF00BF00BF00BF00BF4E
:100EAC0000BF00BF00BF00BF00BF00BF00BF00BF3E
:100EBC0000BF00BF00BF00BF00BF00BF00BF00BF2E
:100ECC0000BF00BF00BF00BF00BF00BF00BF00BF1E
:100EDC0000BF00BF00BF00BF00BF00BF00BF00BF0E
:100EEC0000BF00BF00BF00BF00BF00BF00BF00BFFE
:100EFC0000BF00BF00BF00BF00BFE3791068C3EBA9
:100F0C00C30300EB8307BF8850F823305F83004690
:100F1C0000BF00BF00BF00BF00BF00BF00BF00BFCD
:100F2C0000BF00BF00BF00BF00BF00BF00BF00BFBD
:100F3C0000BF00BF00BF00BF00BF00BF00BF00BFAD
:100F4C0000BF00BF049B5B0804939DF80530013380
:100F5C00DBB2172B8DF8053000F28380E379106833
:100F6C00C3EBC30300EB8307BF8850F823301F8308
:100F7C000398049B18427FF473AF004600BF00BF78
:100F8C0000BF00BF00BF00BF00BF00BF00BF00BF5D
:100F9C0000BF00BF00BF00BF00BF00BF00BF00BF4D
:100FAC0000BFE3791068C3EBC30300EB8307BF8872
:100FBC0050F823305F83004600BF00BF00BF00BF66
:100FCC0000BF00BF00BF00BF00BF00BF00BF00BF1D
:100FDC0000BF00BF00BF00BF00BF00BF00BF00BF0D
:100FEC0000BF00BF00BF00BF00BF00BF00BF00BFFD
:100FFC0000BF00BF00BF00BF00BF00BF00BF00BFED
:10100C0000BF00BF00BF00BF00BF00BF00BF00BFDC
:10101C0000BF00BF00BF00BF00BF00BF00BF00BFCC
:10102C0000BF00BF00BF00BF00BF00BF00BF00BFBC
:10103C0000BF00BF00BF00BF00BF00BF00BF00BFAC
:10104C0000BF00BF00BF00BF00BF00BF00BF00BF9C
:10105C0000BF00BF00BF00BF00BF00BF00BF00BF8C
:10106C0070E7BDF80A309BB2002B7FF4D1AE62B6AC
:10107C0000F0FCFD206107B0F0BD002BF7D04FF461
:10108C00000E0026544B1868544BCDF810E0BDF8F8
:10109C000A200331033A92B2ADF80A2011F8032C5E
:1010AC00D2B28DF8062011F8022CD2B28DF807209E
:1010BC0011F8012CD2B28DF808209DF806C09DF8CD
:1010CC0007209DF80870120242EA0C423A43039240
:1010DC008DF80560E2795D68C2EBC20200EB820715
:1010EC00BF8850F8222005951783039F049A174256
:1010FC0025D05A68059FD21B4F2AFAD9E279C2EB48
:10110C00C20200EB8207BF8850F8222057835A682E
:10111C0005925A68059FD21B072AFAD9049A5208DD
:10112C0004929DF805200132D2B2172A8DF80520C1
:10113C00D0D9BDF80A2092B2002AA6D197E75A68F6
:10114C00059FD21B182AFAD9E279C2EBC20200EB36
:10115C008207BF8850F8222057835A6805925A6834
:10116C00059FD21B452AFAD9D8E77047002B3FF4CC
:10117C007EAF4FF000450026174A0495BDF80A30A3
:10118C000431043B9BB2ADF80A3011F8043CDBB2DD
:10119C008DF8073011F8033CDBB28DF8063011F8EE
:1011AC00023CDBB28DF8083011F8013CDBB28DF853
:1011BC0009309DF807C09DF806309DF808001B0407
:1011CC009DF8097043EA0C633B4343EA0023039305
:1011DC008DF805607FE000BF98000020001000E053
:1011EC00004600BF00BF00BF00BF00BF00BF00BF74
:1011FC0000BF00BF00BF00BF00BF00BF00BF00BFEB
:10120C0000BF00BF00BF00BF00BF00BF00BF00BFDA
:10121C0000BF00BF00BF00BF00BF00BF00BF00BFCA
:10122C0000BF00BF00BF00BF00BF00BF00BF00BFBA
:10123C0000BF00BF00BF00BF00BF00BF00BF00BFAA
:10124C0000BF00BF00BF00BF00BF00BF00BFE379FD
:10125C001068C3EBC30300EB8307BF8850F823303F
:10126C005F83004600BF00BF00BF00BF00BF00BFD0
:10127C0000BF00BF00BF00BF00BF00BF00BF00BF6A
:10128C0000BF00BF00BF00BF00BF00BF00BF00BF5A
:10129C0000BF00BF00BF00BF00BF00BF00BF00BF4A
:1012AC0000BF00BF00BF00BF00BF00BF00BF00BF3A
:1012BC0000BF00BF00BF00BF00BF00BF00BF00BF2A
:1012CC00049B5B0804939DF805300133DBB21F2BA4
:1012DC008DF805307ED8E3791068C3EBC30300EBBF
:1012EC008307BF8850F823301F830398049B184250
:1012FC007FF476AF004600BF00BF00BF00BF00BF49
:10130C0000BF00BF00BF00BF00BF00BF00BF00BFD9
:10131C0000BF00BF00BF00BF00BF00BFE379106873
:10132C00C3EBC30300EB8307BF8850F823305F8304
:10133C00004600BF00BF00BF00BF00BF00BF00BF22
:10134C0000BF00BF00BF00BF00BF00BF00BF00BF99
:10135C0000BF00BF00BF00BF00BF00BF00BF00BF89
:10136C0000BF00BF00BF00BF00BF00BF00BF00BF79
:10137C0000BF00BF00BF00BF00BF00BF00BF00BF69
:10138C0000BF00BF00BF00BF00BF00BF00BF00BF59
:10139C0000BF00BF00BF00BF00BF00BF00BF00BF49
:1013AC0000BF00BF00BF00BF00BF00BF00BF00BF39
:1013BC0000BF00BF00BF00BF00BF00BF00BF00BF29
:1013CC0000BF00BF00BF00BF00BF00BF00BF00BF19
:1013DC0000BF75E7BDF80A309BB2002B7FF4CDAE91
:1013EC0045E6032D00F02B81002B3FF440AE4FF46B
:1013FC0000050026174A0495BDF80A30E079033B36
:10140C009BB2ADF80A300B781768DBB28DF8073059
:10141C004B78C0EBC000DBB28DF808308B7807EB53
:10142C00800CDBB28DF806309DF807E09DF8083093
:10143C00BCF804C01B0243EA0E439DF806E057F8C3
:10144C00200043EA0E03039303318DF80560A0F8E6
:10145C001AC07CE098000020049B5B0804930046B3
:10146C0000BF00BF00BF00BF00BF00BF00BF00BF78
:10147C0000BF00BF00BF00BF00BF00BF00BF00BF68
:10148C0000BF00BF00BF00BF00BF00BF00BF00BF58
:10149C0000BF00BF00BF00BF00BF00BF00BF00BF48
:1014AC0000BF00BF00BF00BF00BF00BF00BF00BF38
:1014BC0000BF00BF00BF00BF00BF00BF00BF00BF28
:1014CC0000BF00BF00BF00BF00BF00BF00BF00BF18
:1014DC0000BF00BF00BF00BF00BF00BF00BF00BF08
:1014EC0000BF00BFE07917689DF80530C0EBC00065
:1014FC0007EB800CBCF804C057F820000133DBB2BA
:10150C008DF80530A0F818C0004600BF00BF00BF22
:10151C0000BF00BF00BF00BF00BF00BF00BF00BFC7
:10152C0000BF00BF00BF00BF00BF00BF00BF00BFB7
:10153C0000BF9DF80530182B7AD0E3791068C3EB07
:10154C00C30300EB8307BF8850F823305F830398F5
:10155C00049B184280D1004600BF00BF00BF00BFF3
:10156C0000BF00BF00BF00BF00BF00BF00BF00BF77
:10157C0000BF00BF00BF00BFE3791068C3EBC3031B
:10158C0000EB8307BF8850F823301F839DF805308C
:10159C000133DBB28DF80530049B5B0804930046E5
:1015AC0000BF00BF00BF00BF00BF00BF00BF00BF37
:1015BC0000BF00BF00BF00BF00BF00BF00BF00BF27
:1015CC0000BF00BF00BF00BF00BF00BF00BF00BF17
:1015DC0000BF00BF00BF00BF00BF00BF00BF00BF07
:1015EC0000BF00BF00BF00BF00BF00BF00BF00BFF7
:1015FC0000BF00BF00BF00BF00BF00BF00BF00BFE7
:10160C0000BF00BF00BF00BF00BF00BF00BF00BFD6
:10161C0000BF00BF00BF00BF00BF00BF00BF00BFC6
:10162C0000BF00BF00BF00BF9DF80530182B84D150
:10163C00BDF80A309BB2002B7FF4DDAE17E5002B12
:10164C003FF415AD4FF400050026134A0495BDF880
:10165C000A300331033B9BB2ADF80A3011F8033C5E
:10166C00DBB28DF8073011F8023CDBB28DF8063096
:10167C0011F8013CDBB28DF808309DF807709DF82D
:10168C0006309DF808001B0243EA0743034303930B
:10169C008DF80560E1E000BF98000020004600BF17
:1016AC0000BF00BF00BF00BF00BF00BF00BF00BF36
:1016BC0000BF00BF00BF00BF00BF00BF00BF00BF26
:1016CC0000BF00BF00BF00BF00BF00BF00BF00BF16
:1016DC0000BF00BF00BF00BF00BF00BF00BF00BF06
:1016EC0000BF00BF00BF00BF00BF00BF00BF00BFF6
:1016FC0000BF00BF00BF00BF00BF00BF00BF00BFE6
:10170C0000BF00BF00BF00BF00BF00BF00BF00BFD5
:10171C0000BF00BF00BF00BF00BF00BF00BF00BFC5
:10172C0000BF00BF00BF00BF00BF00BF00BF00BFB5
:10173C0000BF00BF00BF00BF00BF00BF00BF00BFA5
:10174C0000BF00BF00BF00BF00BF00BF00BF00BF95
:10175C0000BF00BF00BF00BF00BF00BF00BF00BF85
:10176C0000BF00BF00BF00BF00BF00BF00BF00BF75
:10177C0000BF00BF00BF00BF00BF00BF00BF00BF65
:10178C0000BF00BF00BF00BF00BF00BF00BF00BF55
:10179C0000BF00BF00BF00BF00BF00BF00BF00BF45
:1017AC0000BF00BF00BF00BF00BF00BF00BF00BF35
:1017BC0000BF00BF00BF00BF00BF00BF00BFE37988
:1017CC001068C3EBC30300EB8307BF8850F82330CA
:1017DC005F83004600BF00BF00BF00BF00BF00BF5B
:1017EC0000BF00BF00BF00BF00BF00BF00BF00BFF5
:1017FC0000BF00BF00BF00BF00BF00BF00BF00BFE5
:10180C0000BF00BF00BF00BF00BF00BF00BF00BFD4
:10181C0000BF00BF00BF00BF00BF00BF00BF00BFC4
:10182C0000BF00BF00BF00BF00BF00BF00BF00BFB4
:10183C0000BF00BF00BF00BF00BF00BF00BF00BFA4
:10184C0000BF049B5B0804939DF805300133DBB2A9
:10185C00172B8DF8053000F2EB80E3791068C3EBA1
:10186C00C30300EB8307BF8850F823301F83039812
:10187C00049B18427FF412AF004600BF00BF00BFAC
:10188C0000BF00BF00BF00BF00BF00BF00BF00BF54
:10189C0000BF00BF00BF00BF00BF00BF00BF00BF44
:1018AC0000BF00BF00BF00BF00BF00BF00BF00BF34
:1018BC0000BF00BF00BF00BF00BF00BF00BF00BF24
:1018CC0000BF00BF00BF00BF00BF00BF00BF00BF14
:1018DC0000BF00BF00BF00BF00BF00BF00BF00BF04
:1018EC0000BF00BF00BF00BF00BF00BF00BF00BFF4
:1018FC0000BF00BF00BF00BF00BFE3791068C3EB9F
:10190C00C30300EB8307BF8850F823305F83004686
:10191C0000BF00BF00BF00BF00BF00BF00BF00BFC3
:10192C0000BF00BF00BF00BF00BF00BF00BF00BFB3
:10193C0000BF00BF00BF00BF00BF00BF00BF00BFA3
:10194C0000BF00BF00BF00BF00BF00BF00BF00BF93
:10195C0000BF00BF00BF00BF00BF00BF00BF00BF83
:10196C0000BF00BF00BF00BF00BF00BF00BF00BF73
:10197C0000BF00BF00BF00BF00BF00BF00BF00BF63
:10198C0000BF00BF00BF00BF00BF00BF00BF00BF53
:10199C0000BF00BF00BF00BF00BF00BF00BF00BF43
:1019AC0000BF00BF00BF00BF00BF00BF00BF00BF33
:1019BC0000BF00BF00BF00BF00BF00BF00BF00BF23
:1019CC0000BF00BF00BF00BF00BF00BF00BF00BF13
:1019DC0000BF00BF00BF00BF00BF00BF00BF00BF03
:1019EC0000BF00BF00BF00BF00BF00BF00BF00BFF3
:1019FC0000BF00BF00BF00BF00BF00BF00BF00BFE3
:101A0C0000BF00BF00BF00BF00BF00BF00BF00BFD2
:101A1C0000BF00BF00BF00BF00BF00BF00BF10E78A
:101A2C00BDF80A309BB2002B7EF492AFFFF71FBBC0
:101A3C00BDF80A309BB2002B7FF408AEFFF717BB42
:101A4C004388F0B58B4226D9057AC2F30743C2F31B
:101A5C000724D6B23DB16B436C436E43C3F30723EB
:101A6C00C4F30724360A90F806C0C768BCF1060F09
:101A7C000CBF042503256943ACF1020C7D18BCF1A5
:101A8C00060F1DD8DFE80CF0041C08040F0404003A
:101A9C007C546B70AE70F0BDFE2B28BFFE237B54C4
:101AAC006E70AC70F7E77B546C70AE70037A120EEC
:101ABC0013B9D2B2EA70EEE75A43C2F30722F9E740
:101ACC007B546C70AE70E6E742EA012242EA0040B9
:101ADC0070474088704740887047000008B500F098
:101AEC0095F8014B186008BD98000020024B9868CF
:101AFC0008B100F0D3B87047A000002041807047B7
:101B0C0038B50B4D2978BFF35B8F11F001040DD163
:101B1C002846FEF7C0FA48B12146064800F09FFA65
:101B2C002846FEF7BDFA044801F00FFB014838BD0A
:101B3C009C000020A0000020F91A0A0810B50446E9
:101B4C00FFF7DEFF2146BDE8104000F0B3BA38B510
:101B5C000D4604460021408801F077FA0B20FFF770
:101B6C00EDFF2846FFF7EAFF0020FFF7E7FF0546E9
:101B7C000121608801F069FA284638BD70B50E461F
:101B8C00154604460021408801F05FFA0A20FFF751
:101B9C00D5FF3046FFF7D2FF2846FFF7CFFF60880E
:101BAC000121BDE8704001F050BA10B52D2104465A
:101BBC00FFF7CDFF00F0FC022D21204642F002027F
:101BCC00FFF7DCFFBDE810400A2000F08FBB10B51A
:101BDC0001210446408801F027FAFFF791FF00F03D
:101BEC004DFAFFF78DFF002100F056FA4FF4FA7012
:101BFC0000F07CFB01232046237052221F21FFF7AB
:101C0C00BDFFBDE810400A2000F070BB08B5024BC8
:101C1C001B681B68019308BDB001060808B5024B90
:101C2C001B689B68019308BDB001060808B5024B00
:101C3C001B68DB68019308BDB001060808B5024BB0
:101C4C001B681B69019308BDB001060808B5024B5F
:101C5C001B685B69019308BDB001060808B5024B0F
:101C6C001B685B68019308BD9C01060808B5024B14
:101C7C001B681B69019308BD9C01060808B5024B43
:101C8C001B685B69019308BD9C01060808B5024BF3
:101C9C001B685B6C019308BDD001060808B5024BAC
:101CAC001B689B6C019308BDD001060808B5024B5C
:101CBC001B68DB6C019308BDD001060808B5024B0C
:101CCC001B685B6D019308BDD001060808B5024B7B
:101CDC001B689B69019308BDC401060808B5024B3B
:101CEC001B685B6A019308BDC401060808B5024B6A
:101CFC001B689B6A019308BDC401060808B5024B1A
:101D0C001B68DB6A019308BDC401060808B5024BC9
:101D1C001B681B6B019308BDC401060808B5024B78
:101D2C001B685B6B019308BDC401060808B5024B28
:101D3C001B689B6B019308BDC401060808B5024BD8
:101D4C001B681B6C019308BDC401060808B5024B47
:101D5C001B681B6E019308BDAC01060808B5024B4D
:101D6C001B685B6E019308BDAC01060808B5024BFD
:101D7C001B689B6E019308BDAC01060808B5024BAD
:101D8C001B68DB6E019308BDAC01060808B5024B5D
:101D9C001B681B6F019308BDAC01060808B5024B0C
:101DAC001B685B6F019308BDAC01060808B5034BBB
:101DBC001B68D3F88030019308BD0000AC01060805
:101DCC0008B5024B1B681B68019308BDB4010608DB
:101DDC0008B5024B1B68DB68019308BDB40106080B
:101DEC0008B5024B1B685B69019308BDB40106087A
:101DFC0008B5024B1B68DB69019308BDB4010608EA
:101E0C0008B5024B1B681B6A019308BDB401060898
:101E1C0008B5024B1B681B68019308BDD801060866
:101E2C0008B5024B1B685B68019308BDD801060816
:101E3C0008B5024B1B681B69019308BDD801060845
:101E4C0008B5024B1B685B69019308BDD8010608F5
:101E5C0008B5024B1B689B69019308BDD8010608A5
:101E6C0008B5024B1B68DB69019308BDD801060855
:101E7C0008B5024B1B681B6A019308BDD801060804
:101E8C0008B5024B1B689B6C019308BDC00106088A
:101E9C0008B5024B1B685B68019308BDA4010608DA
:101EAC0008B5024B1B685B69019308BDA4010608C9
:101EBC0008B5024B1B68DB6C019308BDA401060836
:101ECC0008B5024B1B685B6D019308BDA4010608A5
:101EDC0008B5034B1B68D3F89030019308BD000084
:101EEC00A401060808B5034B1B68D3F89C3001937A
:101EFC0008BD0000A401060808B5024B1B685B680E
:101F0C00019308BDC801060808B5024B1B689B6805
:101F1C00019308BDC801060808B5024B1B68DB68B5
:101F2C00019308BDC801060808B5024B1B681B6964
:101F3C00019308BDC801060808B5024B1B685B6914
:101F4C00019308BDC801060808B5024B1B689B69C4
:101F5C00019308BDC801060808B5024B1B68DB6974
:101F6C00019308BDC801060808B5024B1B681B6A23
:101F7C00019308BDC801060808B5024B1B681B6B12
:101F8C00019308BDC801060808B5024B1B685B6BC2
:101F9C00019308BDC801060808B5024B1B681B6CF1
:101FAC00019308BDC801060808B5024B1B685B6CA1
:101FBC00019308BDC801060808B5024B1B685B6895
:101FCC00019308BDCC01060808B5024B1B685B6980
:101FDC00019308BDCC01060808B5024B1B681B6AAF
:101FEC00019308BDCC01060808B5024B1B68DB6BDE
:101FFC00019308BDCC01060808B5024B1B681B6891
:10200C00019308BDA001060808B5024B1B685B686C
:10201C00019308BDA001060808B5024B1B689B681C
:10202C00019308BDA001060808B5024B1B68DB6ACA
:10203C00019308BDA001060808B5024B1B681B6B79
:10204C00019308BDA001060808B5024B1B685B6C28
:10205C00019308BDA00106088068FFF72FBE70B57C
:10206C00002604460D4640F8086FFFF70FFE284681
:10207C002570FFF7BDFE2046666070BD10B50446A6
:10208C008068FFF713FE20784FF6FF71FFF798FE7C
:10209C002046FFF7E1FF10BD38B504460D468068B9
:1020AC00FFF704FE20782946FFF792FE2046FFF743
:1020BC00D3FF38BD08B50078FFF792FEC0B208BD5B
:1020CC0002220020044B1A60044B054A18609880C9
:1020DC0098719A60FFF7DCBEB8000020AC000020BD
:1020EC000000FFFF10B504460068FFF78DFF204687
:1020FC0010BD10B50446006808B1FFF785FF00233A
:10210C00C4E90133236010BD38B504460D460068A0
:10211C000131FFF781FF10B1C4E90005012038BD82
:10212C0010B50368044623B143688B4201D30120E8
:10213C0010BD2046FFF7E8FF0028F9D0A368002B5C
:10214C00F5D122681370F2E770B50E4611460446BD
:10215C001546FFF7E5FF20B92046FFF7CAFF2046DA
:10216C0070BD2A4631462068A56000F0F4FF0021BE
:10217C002268A368D154F2E738B5002304460D4613
:10218C00C0E900338360037339B1084601F043F8AA
:10219C00294602462046FFF7D7FF204638BD884225
:1021AC0010B50B46044604D0096821B19A68FFF7B4
:1021BC00CBFF204610BDFFF79CFFFAE7002310B5BC
:1021CC000446C0E9003383600373FFF7E8FF204641
:1021DC0010BD08B582683AB921B10878B0FA80F020
:1021EC00400900E0012008BD006809B90078F5E756
:1021FC0000F0ECFFF2E7F8B506460D4600248F1808
:10220C00BD420CD0336830469B6815F8011B9847CB
:10221C00031E01DB1C44F3E7002C08BF1C462046C0
:10222C00F8BD70B505460C46084649B100F0F3FF01
:10223C002B68024621462846BDE87040DB681847EB
:10224C0070BD03689B68184738B50D210546FFF72C
:10225C00F8FF0A2104462846FFF7F3FF204438BD57
:10226C0038B50546FFF7DDFF04462846FFF7ECFFBF
:10227C00204438BD0023012A98BF0A2230B58BB008
:10228C000C468DF8243009A92546B4FBF2F404FB66
:10229C001253DBB2092B94BF30333733DBB2AA4273
:1022AC0001F8013DF0D9FFF7BCFF0BB030BD0023A6
:1022BC0040681A461946FFF73FBE0B68036013B11E
:1022CC005A6801325A607047014B024A1A607047D3
:1022DC00BC00002090330A08024B1A68024B1A60AB
:1022EC00704700BF0C000020C00000200021FFF749
:1022FC00D7BD10B58368044613B103220146984735
:10230C00204610BD13B56C460B46024603C884E844
:10231C00030093E8030082E8030094E8030083E8D9
:10232C00030002B010BD00000022014B9A60704700
:10233C00C4000020014B1860704700BF1000002043
:10234C0008B5134B43B100F02BFC03681B6998478D
:10235C00002801DDAFF300800E4B43B100F0C2FC4E
:10236C0003681B699847002801DDAFF300800A4B16
:10237C000BB1AFF30080094B43B100F03DFC036897
:10238C001B699847002801DDAFF3008008BD00BF32
:10239C000000000000000000000000000000000031
:1023AC0008B5FFF7CDFFFFF769FC014B186008BDBE
:1023BC003C0100200548064A08B5121A054900F0F0
:1023CC00CAFE054B054A1A6008BD00BF004002401A
:1023DC000440024010350A08004002401E1C279A97
:1023EC00002307B51A466FF077010093FFF77AFDCB
:1023FC0003B05DF804FB000007B543880A2B08D036
:10240C00502B0BD1094B1B684BB103B05DF804EB9F
:10241C001847FFF7E5FF03B05DF804FB00231A46ED
:10242C006FF077010093FFF75DFDF4E7D800002013
:10243C00002110B51148FFF707FE114B1A68114B1C
:10244C009A420CBF012200220F4B1A7001D0FFF7E9
:10245C00B1FFFFF703FC044600F094FE0B4B13B1E5
:10246C002046AFF3008000210848FFF7BDFDBDE812
:10247C00104000210648FFF72BBD00BF41230A087E
:10248C00004002401E1C279AD400002000000000CF
:10249C0005240A0870470020704710B50446102127
:1024AC0000F04CFE204610BD08B5FFF7F6FF08BD46
:1024BC00002230B54FF69C74026084808D888C802D
:1024CC000C68858004600A6030BD10B50446006855
:1024DC00FFF79AFD204610BD38B5C468F4B12378D7
:1024EC00022B03D104F10C00FFF7EFFF656835B147
:1024FC002846FFF7FEFE1021284600F01FFEA568B7
:10250C0035B12846FFF7F5FE1021284600F016FEDF
:10251C002046BDE83840142100F010BE38BD10B57F
:10252C0088B004466846FFF727FE694604A8FFF703
:10253C0045FE04A8A047044604A8FFF7D3FD68464F
:10254C00FFF7D0FD204608B010BD1FB500231024A6
:10255C00CDE90201019269461A461846ADF80230DF
:10256C00ADF80040FFF728FD04B010BD73B50E4662
:10257C00044656F8043B0D4601A831460093FFF77C
:10258C009CFE009B019A23600023626001A80193CA
:10259C000093FDF70BFF3046FDF708FF2846082196
:1025AC0000F0CCFD204602B070BD826810B50AB9AF
:1025BC0000F0C8FDC368BDE81040184708B50068B6
:1025CC0000F11001FFF7F1FF08BD826810B50AB9E0
:1025DC0000F0B8FDC368BDE81040184708B50068A6
:1025EC0000F11001FFF7F1FF08BD000038B5002322
:1025FC000446036010200D46FDF747FD28B101236A
:10260C00C0E90133024BC56003602060204638BD31
:10261C00B8330A0838B5002383608B6804460D462E
:10262C002BB102229847EB68E360AB68A3602046AD
:10263C0038BD0000F0B589B004686846FFF738FF74
:10264C004FF00203D4E84F2F002A03D1C4E8413FD6
:10265C000029F7D125D104F10C0569462846FFF76E
:10266C0027FF0123BFF35B8F63700020BFF35B8FE9
:10267C0004F1080353E8006F43E80002002AF9D183
:10268C00BFF35B8F6EB1FFF713FC78B12946304670
:10269C00FFF78BFF3046FFF72CFE1021304600F081
:1026AC004DFD6846FFF711FF09B0F0BD314602A899
:1026BC00FFF7B0FFE068B4F9105008B100F090FDDE
:1026CC0006901020ADF81C50FDF7DFFC0546E8B174
:1026DC00002787601820FDF7D8FC044688B1014616
:1026EC00876002A8FFF70EFE049BA268A360059BFF
:1026FC000492E26806A9E36004F110000592FFF76A
:10270C00D7FE084B2C60EB60074BAB6006A8FFF7BD
:10271C00DCFE02A8FFF7EDFD002229460348FFF777
:10272C00CFFBB7E7C9250A0861280A086D2D0A08EE
:10273C002DE9F0478AB005460C46174698469DF899
:10274C004890FFF741FC07AE824638BB4FF62E731C
:10275C00059005A93046ADF81830FFF7A9FE1420F6
:10276C00FDF793FC044648B1022303700123C0E932
:10277C0001AA437031460C30FFF79AFE28462146D9
:10278C0040F8044BFFF732FF3046FFF79EFE05A8DA
:10279C00FFF79BFE28460AB0BDE8F0870C234FF0EC
:1027AC00000A1420CDE908AA0793FDF76EFC014638
:1027BC0028B1C0E901AA80F800A080F801A004A803
:1027CC000391FFF713FF224B08200893FDF75DFCE4
:1027DC00824628B1039B04A940F8043BFFF76DFD2A
:1027EC0042463946204600965FFA89F3CDF824A07C
:1027FC00FFF7F2FBB8B9039B5B7803F0FF0293B9C8
:10280C004FF69C7305A903A80592ADF81830FFF795
:10281C0011FF05A8FFF759FE05A80999FFF7A6FEB9
:10282C0006A8FDF7C3FD039B04A906A80593FFF7B3
:10283C0044FD059B069A2B6000236A6006A806934C
:10284C000593FDF7B3FD04A8FDF7B0FDA2E700BFAB
:10285C0025290A08022AF8B5054607D0032A18D0FC
:10286C00012A01D10B6803600020F8BD18200E6806
:10287C00FDF70BFC044650B13146FFF7CBFE306937
:10288C00B6F9147008B100F0ABFC2061A7822C6083
:10289C00EAE70468002CE7D004F11000FFF715FEFE
:1028AC002046FFF726FD1821204600F047FCDBE709
:1028BC0038B5002383608B6804460D462BB1022289
:1028CC009847EB68E360AB68A360204638BD022AEA
:1028DC0070B5044607D0032A12D0012A01D10B6827
:1028EC000360002070BD14200E68FDF7CEFB05467A
:1028FC0020B13146FFF7DCFF337C2B742560F0E709
:10290C000468002CEDD02046FFF7F3FC1421204680
:10291C0000F014FCE5E70000F0B5044689B00D4664
:10292C0001A81146FFF722FEA4B124B21DB128461E
:10293C0000F056FC054601A803A90395ADF810401C
:10294C00FFF778FE03A8FFF7C0FD02A8FDF72EFDE8
:10295C0009B0F0BD0123019DD5E84F2F002A03D10A
:10296C00C5E8413F0029F7D1EFD12B73BFF35B8F43
:10297C006B70BFF35B8F2B1D53E8006F43E8004275
:10298C00002AF9D1BFF35B8F002EDED02046FFF773
:10299C008FFA074660B1304605F10C01FFF715FEC2
:1029AC003046FFF7A6FC1021304600F0C7FBCCE701
:1029BC00314603A8FFF77CFF2B7B10208DF81C30D1
:1029CC00FDF763FB0546D0B187601420FDF75DFB76
:1029DC00044678B10146876003A8FFF793FC059B7A
:1029EC00A268A360069B0592E268E3609DF81C3028
:1029FC0006922374064B2C60EB60064BAB6003A86D
:102A0C00FFF777FC002229460348FFF759FAC7E77E
:102A1C00E9250A08DB280A086D2D0A08704710B54D
:102A2C000446182100F08AFB204610BDF8B50E466E
:102A3C00002400F10807051D17F8011D0A22304675
:102A4C00FFF718FCAF42044401D12046F8BD002C1E
:102A5C00F2D02E213046FFF7F4FB0444ECE70000E3
:102A6C0010B50446044B1122002140F8043B00F041
:102A7C0080FB204610BD00BFD4330A080346074A2A
:102A8C0010B543F8042B01F1100251F8044B91429C
:102A9C0043F8044BF9D10A781A7010BDD4330A08E4
:102AAC00024AC0E90021042202757047D4330A0897
:102ABC0010B59DF8084044EA0324042344EA024478
:102ACC0044EA01644460037510BD000037B5044D41
:102ADC0005609DF818500095FFF7EAFF03B030BD74
:102AEC00D4330A08417470477047704708B5002109
:102AFC00007CFFF7ADF940EAE07008BD08B5012194
:102B0C00007CFFF7A5F940EAE07008BD08B5007C31
:102B1C00FFF796F920EAE07008BD08B5007CFFF7D6
:102B2C0087F920EAE07008BD38B50446007C0D46F4
:102B3C00FFF786F9002801DC607C28B12946207C4F
:102B4C00FFF78EF920EAE07038BD007CFFF790B9F2
:102B5C0010B50446142100F0F1FA204610BD704760
:102B6C0010B54FF47A73044608460021C4E90113EA
:102B7C00044B20742360012311466374FFF748F95A
:102B8C00204610BDE8330A080022007CFFF748B944
:102B9C0010B504461422002100F0EBFA204610BDBB
:102BAC0030B50E4D87B001A8FFF7F2FF2978BFF3BF
:102BBC005B8F11F001040ED12846FDF76CFA50B171
:102BCC00214601AA0648FFF7CBFF2846FDF768FA15
:102BDC00044800F0BAFA024807B030BDDC0000200F
:102BEC00E4000020F52A0A0810B50446142200213E
:102BFC0000F0BFFA204610BD10B50E4C86B001A8EF
:102C0C00FFF7F2FF2378BFF35B8FDB070ED4204670
:102C1C00FDF741FA50B1012101AA0748FFF7A0FFC7
:102C2C002046FDF73DFA054800F08FFA024806B041
:102C3C0010BD00BFE0000020F80000206B2B0A083C
:102C4C00704741747047704708B5007CFFF776F801
:102C5C0020EAE07008BD08B5007CFFF747F820EAD1
:102C6C00E07008BD08B5007CFFF750F840EAE07052
:102C7C0008BD08B5007CFFF741F840EAE07008BDDC
:102C8C00007CFFF74BB870B5467C04460D462EB160
:102C9C002946207CBDE87040FFF720B8007CFFF788
:102CAC004DF80028F4DC304670BD10B504461421F4
:102CBC0000F044FA204610BD4FF0000C10B504464D
:102CCC00084611464FF47A72C4E901C2044A2074D2
:102CDC002260012262741A46FEF7F8FF204610BDEE
:102CEC0018340A08F8B5194C26684EB98420FDF73B
:102CFC00CCF9054618B18422314600F03AFA256029
:102D0C00134D2F684FB98420FDF7BFF9064618B153
:102D1C008422394600F02DFA2E600E4F3978BFF31D
:102D2C005B8F11F001060FD13846FDF7B4F958B19D
:102D3C0031462B6822680848FFF7BEFF3846FDF77E
:102D4C00AFF9064800F001FA0348F8BD1001002065
:102D5C00140100200C01002018010020532C0A083B
:102D6C0010B5836804460BB900F0ECF9C3689847BA
:102D7C00A3681BB103222146204698472046BDE894
:102D8C001040102100F0DAB97047F8B50646154628
:102D9C000C468F18BC4206D0336830469B6814F83A
:102DAC00011B9847F6E72846F8BD0022007CFEF789
:102DBC00CDBF0021007CFEF7D1BF0021007CFEF7C7
:102DCC00D5BF0021007CFEF7D9BF0021007CFEF7A7
:102DDC00DDBF10B50446142100F0B0F9204610BD3B
:102DEC0010B54FF47A73044608460021C4E9011368
:102DFC00034B114623602074FEF7D8FF204610BD0C
:102E0C0048340A08002240681146FFF78DB8F0B527
:102E1C00154689B011220E460446002103A800F085
:102E2C00A8F9284600F0F7F9002781B27368284604
:102E3C00009703AAFFF724F830B139462046FFF774
:102E4C002FFE204609B0F0BD204603A9FFF716FE61
:102E5C00F7E7002240681146FFF786B80022406869
:102E6C001146FFF791B800224068FFF785B80022A1
:102E7C00406881F00101FFF76FB8002340681A46E3
:102E8C001946FFF761B8002240681146FFF73CB8BD
:102E9C00002202214068FFF73FB8002340681A4621
:102EAC00FFF72AB80422024B5A60024A1A60704794
:102EBC002C01002070340A08002340681A46FFF7E2
:102ECC001BB8002202214068FFF726B80022406898
:102EDC001146FFF719B8002240681146FFF724B8D5
:102EEC00002340681A461946FFF726B800234068AD
:102EFC001A461946FFF728B800214068FFF74CB86E
:102F0C0000214068FFF750B80022406881F00101B1
:102F1C00FFF722B800224068FFF72EB80022406865
:102F2C001146FFF731B8002240681146FFF71CB874
:102F3C0070B515468EB0044608A8FFF791FD112216
:102F4C00002103A800F015F90026284600F063F9CB
:102F5C000A4B009681B25B68284603AAFEF790FFE5
:102F6C0030B131462046FFF79BFD20460EB070BDB8
:102F7C00204603A9FFF782FDF7E700BF2C010020D4
:102F8C00024B034A1A6000225A6070473401002039
:102F9C00AC340A08024B986808B1FEF77FBE704744
:102FAC00A0000020172870B5044601D9002070BD80
:102FBC00A0F10D03022B0BD9012824D800F09AF8AC
:102FCC000021007CFEF7EAFE80F00100C0B2EEE7C3
:102FDC00124E3178BFF35B8F11F001050DD13046E5
:102FEC00FDF759F848B129460D48FFF738F8304637
:102FFC00FDF756F80B4800F0A8F8094B1878FEF7C7
:10300C00FFFE0028D2D1123C012C05D8FFF76AFE36
:10301C00007CFEF78BFED7E70120C8E79C00002060
:10302C00A0000020A12F0A08172838B504460D4629
:10303C000AD8FF2908D0FFF7B5FF28B1294620464A
:10304C00BDE83840FEF7EABD38BD38B504460D463C
:10305C00FEF7ECFDFF2810D0062804D84D2323FAE8
:10306C0000F0C30709D42046FFF79CFF28B129467E
:10307C002046BDE83840FEF7E1BD38BD10B504462A
:10308C00FEF7D4FD031FDBB2012B08D92046FFF756
:10309C0089FF20B12046BDE81040FEF7D7BD0020C7
:1030AC0010BD0000002307B51A46194600930348CB
:1030BC00FFF70CFD03B05DF804FB00BF40010020DE
:1030CC0070470000002370B5202543801423084E60
:1030DC0004460380314685600561284600F030F8CF
:1030EC0031466060284600F02BF8E060204670BD49
:1030FC00E0340A0830B50E4D87B02978BFF35B8FEA
:10310C0011F0010411D12846FCF7C5FF68B101A8E4
:10311C00FFF7D8FF214601AA0648FFF761FE2846B3
:10312C00FCF7BEFF044800F010F8024807B030BDB1
:10313C00580100205C010020CD300A08FCF7A9BF23
:10314C00FCF7A5BF08B5FEF76FFF002301461A4632
:10315C00184600F069B80A44914200F1FF3300D1DF
:10316C00704710B511F8014B914203F8014FF9D19A
:10317C0010BD03460244934200D1704703F8011B73
:10318C00F9E7000038B50D4B04461D68AB6B7BB9F5
:10319C001820FEF731FF0A4A0A4BA863C0E9002346
:1031AC00094B012283600B2383810023C0E9042394
:1031BC000022AB6B1C615A6138BD00BF10000020AF
:1031CC000E33CDAB34126DE6ECDE050010F8012B9E
:1031DC0011F8013B012A28BF9A42F7D0D01A704748
:1031EC00024B0146186800F003B800BF1000002025
:1031FC0070B5044608460D4600F00DF8461C3146E5
:10320C002046FEF719FF044618B132462946FFF74F
:10321C00A2FF204670BD034613F8012B002AFBD1F8
:10322C00181A0138704700002DE9F843DFF8BC800C
:10323C000646D8F800001F460D46914600F058F897
:10324C00264B1C6834B9264C1C60264B13B11B68EA
:10325C00C4F8883063681F2B07DDD8F8000000F035
:10326C0049F84FF0FF30BDE8F8835EB3D4F888001E
:10327C0088B91D4B23B9D8F8000000F03AF8F0E7F4
:10328C004FF48470FEF7B8FE0028F4D00023C0E998
:10329C004033C4F8880001226368022E40F8239062
:1032AC0002FA03F200EB8301D0F8003143EA020387
:1032BC00C0F80031C1F8807002BFD0F804311A4355
:1032CC00C0F804216368D8F800005A1C023362600D
:1032DC0044F8235000F00EF80020C4E7FC01002055
:1032EC00700100200000000005200A087400002076
:1032FC0070477047704700001D000A085D000A08FF
:10330C0085000A0889000A0800000000534D536626
:10331C00726F6D00636C65617200627574746F6EB0
:10332C003200627574746F6E3300627574746F6EF4
:10333C0034006F6E007261696E626F772900726182
:10334C00696E626F77007265642900726564006251
:10335C006C75652900626C756500677265656E2910
:10336C0000677265656E006E6F746F6B0000000015
:10337C002C01000018000000F40100002C010000DA
:10338C00500000006170700025592D256D2D2564AD
:10339C005425483A254D3A2553257A0061736374B8
:1033AC00696D65000000000000000000A1240A08FF
:1033BC00A7240A08E5240A08B5240A08A3240A0845
:1033CC000000000000000000392A0A08292A0A0817
:1033DC002B2A0A080000000000000000F72A0A0847
:1033EC005D2B0A08352B0A0803220A08272B0A082A
:1033FC00F92A0A08092B0A08572B0A08192B0A085C
:10340C00F12A0A0800000000000000004D2C0A08F8
:10341C00B72C0A08932C0A0803220A08632C0A0802
:10342C007F2C0A08712C0A088D2C0A084F2C0A08CC
:10343C00552C0A080000000000000000952D0A0819
:10344C00DF2D0A08B72D0A08972D0A08BF2D0A0888
:10345C00C72D0A08CF2D0A08D72D0A080000000036
:10346C0000000000A72E0A089D2E0A08932E0A08B9
:10347C00112E0A08BB220A08872E0A08052F0A08F3
:10348C000D2F0A087B2E0A08732E0A08692E0A08CB
:10349C005F2E0A081B2E0A08000000000000000026
:1034AC00C52E0A08CF2E0A08D92E0A08E32E0A08C0
:1034BC00ED2E0A08F92E0A08052F0A080D2F0A0806
:1034CC00152F0A08212F0A08292F0A08332F0A085A
:1034DC003D2F0A080000000045060A0819080A08D2
:1034EC00E91A0A08CD200A08D5220A08E5220A089A
:1034FC0035230A08B12E0A088D2F0A08B1300A08A4
:04350C0000000000BB
:0435100000000000B7
:10351400640000000405060703000000A8330A083D
:103524001400002000000000000000000000000063
:103534000000000000000000000000000000000087
:103544000000000000000000000000000000000077
:103554000000000000000000000000000000000067
:103564000000000000000000000000000000000057
:103574000000000000000000000000000000000047
:0835840000000000010200201C
:10358C00FFFFFFFF00000102030405060708090AFC
:10359C000B0C0D0E0F101112131415161718191AF7
:0835AC001B1C1D1E1F2028003E
:0435B40078563412FF
:04000005080A001CC9
:00000001FF
